{
  "contractName": "PAYRUESTORE",
  "abi": [
    {
      "anonymous": false,
      "inputs": [
        {
          "indexed": true,
          "internalType": "address",
          "name": "owner",
          "type": "address"
        },
        {
          "indexed": true,
          "internalType": "address",
          "name": "approved",
          "type": "address"
        },
        {
          "indexed": true,
          "internalType": "uint256",
          "name": "tokenId",
          "type": "uint256"
        }
      ],
      "name": "Approval",
      "type": "event"
    },
    {
      "anonymous": false,
      "inputs": [
        {
          "indexed": true,
          "internalType": "address",
          "name": "owner",
          "type": "address"
        },
        {
          "indexed": true,
          "internalType": "address",
          "name": "operator",
          "type": "address"
        },
        {
          "indexed": false,
          "internalType": "bool",
          "name": "approved",
          "type": "bool"
        }
      ],
      "name": "ApprovalForAll",
      "type": "event"
    },
    {
      "anonymous": false,
      "inputs": [
        {
          "indexed": true,
          "internalType": "address",
          "name": "previousOwner",
          "type": "address"
        },
        {
          "indexed": true,
          "internalType": "address",
          "name": "newOwner",
          "type": "address"
        }
      ],
      "name": "OwnershipTransferred",
      "type": "event"
    },
    {
      "anonymous": false,
      "inputs": [
        {
          "indexed": true,
          "internalType": "address",
          "name": "from",
          "type": "address"
        },
        {
          "indexed": true,
          "internalType": "address",
          "name": "to",
          "type": "address"
        },
        {
          "indexed": true,
          "internalType": "uint256",
          "name": "tokenId",
          "type": "uint256"
        }
      ],
      "name": "Transfer",
      "type": "event"
    },
    {
      "inputs": [
        {
          "internalType": "address",
          "name": "to",
          "type": "address"
        },
        {
          "internalType": "uint256",
          "name": "tokenId",
          "type": "uint256"
        }
      ],
      "name": "approve",
      "outputs": [],
      "stateMutability": "nonpayable",
      "type": "function"
    },
    {
      "inputs": [
        {
          "internalType": "address",
          "name": "owner",
          "type": "address"
        }
      ],
      "name": "balanceOf",
      "outputs": [
        {
          "internalType": "uint256",
          "name": "",
          "type": "uint256"
        }
      ],
      "stateMutability": "view",
      "type": "function",
      "constant": true
    },
    {
      "inputs": [
        {
          "internalType": "uint256",
          "name": "tokenId",
          "type": "uint256"
        }
      ],
      "name": "getApproved",
      "outputs": [
        {
          "internalType": "address",
          "name": "",
          "type": "address"
        }
      ],
      "stateMutability": "view",
      "type": "function",
      "constant": true
    },
    {
      "inputs": [
        {
          "internalType": "address",
          "name": "owner",
          "type": "address"
        },
        {
          "internalType": "address",
          "name": "operator",
          "type": "address"
        }
      ],
      "name": "isApprovedForAll",
      "outputs": [
        {
          "internalType": "bool",
          "name": "",
          "type": "bool"
        }
      ],
      "stateMutability": "view",
      "type": "function",
      "constant": true
    },
    {
      "inputs": [],
      "name": "name",
      "outputs": [
        {
          "internalType": "string",
          "name": "",
          "type": "string"
        }
      ],
      "stateMutability": "view",
      "type": "function",
      "constant": true
    },
    {
      "inputs": [],
      "name": "owner",
      "outputs": [
        {
          "internalType": "address",
          "name": "",
          "type": "address"
        }
      ],
      "stateMutability": "view",
      "type": "function",
      "constant": true
    },
    {
      "inputs": [
        {
          "internalType": "uint256",
          "name": "tokenId",
          "type": "uint256"
        }
      ],
      "name": "ownerOf",
      "outputs": [
        {
          "internalType": "address",
          "name": "",
          "type": "address"
        }
      ],
      "stateMutability": "view",
      "type": "function",
      "constant": true
    },
    {
      "inputs": [],
      "name": "propelToken",
      "outputs": [
        {
          "internalType": "contract IERC20Upgradeable",
          "name": "",
          "type": "address"
        }
      ],
      "stateMutability": "view",
      "type": "function",
      "constant": true
    },
    {
      "inputs": [],
      "name": "renounceOwnership",
      "outputs": [],
      "stateMutability": "nonpayable",
      "type": "function"
    },
    {
      "inputs": [
        {
          "internalType": "address",
          "name": "from",
          "type": "address"
        },
        {
          "internalType": "address",
          "name": "to",
          "type": "address"
        },
        {
          "internalType": "uint256",
          "name": "tokenId",
          "type": "uint256"
        }
      ],
      "name": "safeTransferFrom",
      "outputs": [],
      "stateMutability": "nonpayable",
      "type": "function"
    },
    {
      "inputs": [
        {
          "internalType": "address",
          "name": "from",
          "type": "address"
        },
        {
          "internalType": "address",
          "name": "to",
          "type": "address"
        },
        {
          "internalType": "uint256",
          "name": "tokenId",
          "type": "uint256"
        },
        {
          "internalType": "bytes",
          "name": "_data",
          "type": "bytes"
        }
      ],
      "name": "safeTransferFrom",
      "outputs": [],
      "stateMutability": "nonpayable",
      "type": "function"
    },
    {
      "inputs": [
        {
          "internalType": "address",
          "name": "operator",
          "type": "address"
        },
        {
          "internalType": "bool",
          "name": "approved",
          "type": "bool"
        }
      ],
      "name": "setApprovalForAll",
      "outputs": [],
      "stateMutability": "nonpayable",
      "type": "function"
    },
    {
      "inputs": [
        {
          "internalType": "bytes4",
          "name": "interfaceId",
          "type": "bytes4"
        }
      ],
      "name": "supportsInterface",
      "outputs": [
        {
          "internalType": "bool",
          "name": "",
          "type": "bool"
        }
      ],
      "stateMutability": "view",
      "type": "function",
      "constant": true
    },
    {
      "inputs": [],
      "name": "symbol",
      "outputs": [
        {
          "internalType": "string",
          "name": "",
          "type": "string"
        }
      ],
      "stateMutability": "view",
      "type": "function",
      "constant": true
    },
    {
      "inputs": [
        {
          "internalType": "uint256",
          "name": "tokenId",
          "type": "uint256"
        }
      ],
      "name": "tokenURI",
      "outputs": [
        {
          "internalType": "string",
          "name": "",
          "type": "string"
        }
      ],
      "stateMutability": "view",
      "type": "function",
      "constant": true
    },
    {
      "inputs": [
        {
          "internalType": "address",
          "name": "from",
          "type": "address"
        },
        {
          "internalType": "address",
          "name": "to",
          "type": "address"
        },
        {
          "internalType": "uint256",
          "name": "tokenId",
          "type": "uint256"
        }
      ],
      "name": "transferFrom",
      "outputs": [],
      "stateMutability": "nonpayable",
      "type": "function"
    },
    {
      "inputs": [
        {
          "internalType": "address",
          "name": "newOwner",
          "type": "address"
        }
      ],
      "name": "transferOwnership",
      "outputs": [],
      "stateMutability": "nonpayable",
      "type": "function"
    },
    {
      "inputs": [],
      "name": "initialize",
      "outputs": [],
      "stateMutability": "nonpayable",
      "type": "function"
    },
    {
      "inputs": [
        {
          "internalType": "string",
          "name": "_newBaseURI",
          "type": "string"
        }
      ],
      "name": "setBaseURI",
      "outputs": [],
      "stateMutability": "nonpayable",
      "type": "function"
    },
    {
      "inputs": [],
      "name": "getAllOnSale",
      "outputs": [
        {
          "components": [
            {
              "internalType": "uint256",
              "name": "id",
              "type": "uint256"
            },
            {
              "internalType": "uint256",
              "name": "price",
              "type": "uint256"
            },
            {
              "internalType": "string",
              "name": "name",
              "type": "string"
            },
            {
              "internalType": "string",
              "name": "uri",
              "type": "string"
            },
            {
              "internalType": "bool",
              "name": "sale",
              "type": "bool"
            },
            {
              "internalType": "bool",
              "name": "priceInPropel",
              "type": "bool"
            }
          ],
          "internalType": "struct PAYRUESTORE.TokenMeta[]",
          "name": "",
          "type": "tuple[]"
        }
      ],
      "stateMutability": "view",
      "type": "function",
      "constant": true
    },
    {
      "inputs": [
        {
          "internalType": "uint256",
          "name": "_tokenId",
          "type": "uint256"
        },
        {
          "internalType": "bool",
          "name": "_sale",
          "type": "bool"
        },
        {
          "internalType": "uint256",
          "name": "_price",
          "type": "uint256"
        }
      ],
      "name": "setTokenSale",
      "outputs": [],
      "stateMutability": "nonpayable",
      "type": "function"
    },
    {
      "inputs": [
        {
          "internalType": "uint256",
          "name": "_tokenId",
          "type": "uint256"
        },
        {
          "internalType": "uint256",
          "name": "_price",
          "type": "uint256"
        }
      ],
      "name": "resellToken",
      "outputs": [],
      "stateMutability": "payable",
      "type": "function",
      "payable": true
    },
    {
      "inputs": [
        {
          "internalType": "uint256",
          "name": "_tokenId",
          "type": "uint256"
        },
        {
          "internalType": "uint256",
          "name": "_price",
          "type": "uint256"
        }
      ],
      "name": "resellTokenByPropel",
      "outputs": [],
      "stateMutability": "nonpayable",
      "type": "function"
    },
    {
      "inputs": [
        {
          "internalType": "uint256",
          "name": "_tokenId",
          "type": "uint256"
        },
        {
          "internalType": "uint256",
          "name": "_price",
          "type": "uint256"
        }
      ],
      "name": "setTokenPrice",
      "outputs": [],
      "stateMutability": "nonpayable",
      "type": "function"
    },
    {
      "inputs": [
        {
          "internalType": "uint256",
          "name": "tokenId",
          "type": "uint256"
        }
      ],
      "name": "tokenPrice",
      "outputs": [
        {
          "internalType": "uint256",
          "name": "",
          "type": "uint256"
        }
      ],
      "stateMutability": "view",
      "type": "function",
      "constant": true
    },
    {
      "inputs": [
        {
          "internalType": "uint256",
          "name": "_tokenId",
          "type": "uint256"
        }
      ],
      "name": "tokenMeta",
      "outputs": [
        {
          "components": [
            {
              "internalType": "uint256",
              "name": "id",
              "type": "uint256"
            },
            {
              "internalType": "uint256",
              "name": "price",
              "type": "uint256"
            },
            {
              "internalType": "string",
              "name": "name",
              "type": "string"
            },
            {
              "internalType": "string",
              "name": "uri",
              "type": "string"
            },
            {
              "internalType": "bool",
              "name": "sale",
              "type": "bool"
            },
            {
              "internalType": "bool",
              "name": "priceInPropel",
              "type": "bool"
            }
          ],
          "internalType": "struct PAYRUESTORE.TokenMeta",
          "name": "",
          "type": "tuple"
        }
      ],
      "stateMutability": "view",
      "type": "function",
      "constant": true
    },
    {
      "inputs": [
        {
          "internalType": "uint256",
          "name": "_tokenId",
          "type": "uint256"
        }
      ],
      "name": "purchaseToken",
      "outputs": [],
      "stateMutability": "payable",
      "type": "function",
      "payable": true
    },
    {
      "inputs": [
        {
          "internalType": "uint256",
          "name": "_tokenId",
          "type": "uint256"
        }
      ],
      "name": "purchaseTokenByPropel",
      "outputs": [],
      "stateMutability": "nonpayable",
      "type": "function"
    },
    {
      "inputs": [
        {
          "internalType": "address",
          "name": "_owner",
          "type": "address"
        },
        {
          "internalType": "string",
          "name": "_tokenURI",
          "type": "string"
        },
        {
          "internalType": "string",
          "name": "_name",
          "type": "string"
        },
        {
          "internalType": "uint256",
          "name": "_price",
          "type": "uint256"
        },
        {
          "internalType": "bool",
          "name": "_sale",
          "type": "bool"
        }
      ],
      "name": "mintCollectable",
      "outputs": [
        {
          "internalType": "uint256",
          "name": "",
          "type": "uint256"
        }
      ],
      "stateMutability": "payable",
      "type": "function",
      "payable": true
    },
    {
      "inputs": [
        {
          "internalType": "address",
          "name": "_owner",
          "type": "address"
        },
        {
          "internalType": "string",
          "name": "_tokenURI",
          "type": "string"
        },
        {
          "internalType": "string",
          "name": "_name",
          "type": "string"
        },
        {
          "internalType": "uint256",
          "name": "_price",
          "type": "uint256"
        },
        {
          "internalType": "bool",
          "name": "_sale",
          "type": "bool"
        }
      ],
      "name": "mintCollectableByPropel",
      "outputs": [
        {
          "internalType": "uint256",
          "name": "",
          "type": "uint256"
        }
      ],
      "stateMutability": "nonpayable",
      "type": "function"
    }
  ],
  "bytecode": "0x608060405234801561001057600080fd5b50615aa980620000216000396000f3fe6080604052600436106101cd5760003560e01c80638129fc1c116100f7578063bfe4f4b711610095578063e219fc7511610064578063e219fc751461067c578063e985e9c514610698578063eb685c47146106d5578063f2fde38b146106fe576101cd565b8063bfe4f4b7146105a9578063c2db2c42146105e6578063c87b56dd14610602578063d4ddce8a1461063f576101cd565b806395d89b41116100d157806395d89b4114610501578063a22cb4651461052c578063b7578a1c14610555578063b88d4fde14610580576101cd565b80638129fc1c146104945780638da5cb5b146104ab57806390894559146104d6576101cd565b806339b444361161016f5780636387ede61161013e5780636387ede6146103ee57806370a0823114610417578063715018a614610454578063715f39621461046b576101cd565b806339b444361461032f57806342842e0e1461035f57806355f804b3146103885780636352211e146103b1576101cd565b8063095ea7b3116101ab578063095ea7b3146102775780630ae7a310146102a057806323b872dd146102dd5780632d80810514610306576101cd565b806301ffc9a7146101d257806306fdde031461020f578063081812fc1461023a575b600080fd5b3480156101de57600080fd5b506101f960048036038101906101f49190613cb0565b610727565b6040516102069190613cf8565b60405180910390f35b34801561021b57600080fd5b50610224610809565b6040516102319190613dac565b60405180910390f35b34801561024657600080fd5b50610261600480360381019061025c9190613e04565b61089b565b60405161026e9190613e72565b60405180910390f35b34801561028357600080fd5b5061029e60048036038101906102999190613eb9565b610920565b005b3480156102ac57600080fd5b506102c760048036038101906102c29190613e04565b610a38565b6040516102d49190613ff1565b60405180910390f35b3480156102e957600080fd5b5061030460048036038101906102ff9190614013565b610be5565b005b34801561031257600080fd5b5061032d60048036038101906103289190614066565b610c45565b005b61034960048036038101906103449190614207565b610e84565b60405161035691906142c9565b60405180910390f35b34801561036b57600080fd5b5061038660048036038101906103819190614013565b610fc5565b005b34801561039457600080fd5b506103af60048036038101906103aa91906142e4565b610fe5565b005b3480156103bd57600080fd5b506103d860048036038101906103d39190613e04565b61107b565b6040516103e59190613e72565b60405180910390f35b3480156103fa57600080fd5b506104156004803603810190610410919061432d565b61112d565b005b34801561042357600080fd5b5061043e60048036038101906104399190614380565b611206565b60405161044b91906142c9565b60405180910390f35b34801561046057600080fd5b506104696112be565b005b34801561047757600080fd5b50610492600480360381019061048d9190613e04565b611346565b005b3480156104a057600080fd5b506104a96116f0565b005b3480156104b757600080fd5b506104c06118a2565b6040516104cd9190613e72565b60405180910390f35b3480156104e257600080fd5b506104eb6118cc565b6040516104f891906144ff565b60405180910390f35b34801561050d57600080fd5b50610516611b59565b6040516105239190613dac565b60405180910390f35b34801561053857600080fd5b50610553600480360381019061054e9190614521565b611beb565b005b34801561056157600080fd5b5061056a611d6c565b60405161057791906145c0565b60405180910390f35b34801561058c57600080fd5b506105a760048036038101906105a2919061467c565b611d92565b005b3480156105b557600080fd5b506105d060048036038101906105cb9190614207565b611df4565b6040516105dd91906142c9565b60405180910390f35b61060060048036038101906105fb9190613e04565b611fd9565b005b34801561060e57600080fd5b5061062960048036038101906106249190613e04565b6121c2565b6040516106369190613dac565b60405180910390f35b34801561064b57600080fd5b5061066660048036038101906106619190613e04565b612269565b60405161067391906142c9565b60405180910390f35b61069660048036038101906106919190614066565b6122d1565b005b3480156106a457600080fd5b506106bf60048036038101906106ba91906146ff565b61246c565b6040516106cc9190613cf8565b60405180910390f35b3480156106e157600080fd5b506106fc60048036038101906106f79190614066565b612500565b005b34801561070a57600080fd5b5061072560048036038101906107209190614380565b6125ae565b005b60007f80ac58cd000000000000000000000000000000000000000000000000000000007bffffffffffffffffffffffffffffffffffffffffffffffffffffffff1916827bffffffffffffffffffffffffffffffffffffffffffffffffffffffff191614806107f257507f5b5e139f000000000000000000000000000000000000000000000000000000007bffffffffffffffffffffffffffffffffffffffffffffffffffffffff1916827bffffffffffffffffffffffffffffffffffffffffffffffffffffffff1916145b806108025750610801826126a6565b5b9050919050565b6060606580546108189061476e565b80601f01602080910402602001604051908101604052809291908181526020018280546108449061476e565b80156108915780601f1061086657610100808354040283529160200191610891565b820191906000526020600020905b81548152906001019060200180831161087457829003601f168201915b5050505050905090565b60006108a682612710565b6108e5576040517f08c379a00000000000000000000000000000000000000000000000000000000081526004016108dc90614812565b60405180910390fd5b6069600083815260200190815260200160002060009054906101000a900473ffffffffffffffffffffffffffffffffffffffff169050919050565b600061092b8261107b565b90508073ffffffffffffffffffffffffffffffffffffffff168373ffffffffffffffffffffffffffffffffffffffff16141561099c576040517f08c379a0000000000000000000000000000000000000000000000000000000008152600401610993906148a4565b60405180910390fd5b8073ffffffffffffffffffffffffffffffffffffffff166109bb61277c565b73ffffffffffffffffffffffffffffffffffffffff1614806109ea57506109e9816109e461277c565b61246c565b5b610a29576040517f08c379a0000000000000000000000000000000000000000000000000000000008152600401610a2090614936565b60405180910390fd5b610a338383612784565b505050565b610a40613b67565b610a4982612710565b610a5257600080fd5b60fd60008381526020019081526020016000206040518060c00160405290816000820154815260200160018201548152602001600282018054610a949061476e565b80601f0160208091040260200160405190810160405280929190818152602001828054610ac09061476e565b8015610b0d5780601f10610ae257610100808354040283529160200191610b0d565b820191906000526020600020905b815481529060010190602001808311610af057829003601f168201915b50505050508152602001600382018054610b269061476e565b80601f0160208091040260200160405190810160405280929190818152602001828054610b529061476e565b8015610b9f5780601f10610b7457610100808354040283529160200191610b9f565b820191906000526020600020905b815481529060010190602001808311610b8257829003601f168201915b505050505081526020016004820160009054906101000a900460ff161515151581526020016004820160019054906101000a900460ff1615151515815250509050919050565b610bf6610bf061277c565b8261283d565b610c35576040517f08c379a0000000000000000000000000000000000000000000000000000000008152600401610c2c906149c8565b60405180910390fd5b610c4083838361291b565b505050565b600260c9541415610c8b576040517f08c379a0000000000000000000000000000000000000000000000000000000008152600401610c8290614a34565b60405180910390fd5b600260c981905550610c9c82612710565b610cdb576040517f08c379a0000000000000000000000000000000000000000000000000000000008152600401610cd290614ac6565b60405180910390fd5b60008111610ce857600080fd5b610cf061277c565b73ffffffffffffffffffffffffffffffffffffffff16610d0f8361107b565b73ffffffffffffffffffffffffffffffffffffffff1614610d2f57600080fd5b60fb60009054906101000a900473ffffffffffffffffffffffffffffffffffffffff1673ffffffffffffffffffffffffffffffffffffffff166323b872dd337372f279333f2294c086312254905b08823918d26c60c885610d909190614b44565b6040518463ffffffff1660e01b8152600401610dae93929190614b96565b602060405180830381600087803b158015610dc857600080fd5b505af1158015610ddc573d6000803e3d6000fd5b505050506040513d601f19601f82011682018060405250810190610e009190614be2565b610e3f576040517f08c379a0000000000000000000000000000000000000000000000000000000008152600401610e3690614c81565b60405180910390fd5b600160fd600084815260200190815260200160002060040160006101000a81548160ff021916908315150217905550610e788282612500565b600160c9819055505050565b6000600260c9541415610ecc576040517f08c379a0000000000000000000000000000000000000000000000000000000008152600401610ec390614a34565b60405180910390fd5b600260c98190555060008311610ee157600080fd5b606483610eee9190614b44565b3414610f2f576040517f08c379a0000000000000000000000000000000000000000000000000000000008152600401610f2690614ced565b60405180910390fd5b610f4d7372f279333f2294c086312254905b08823918d26c34612b77565b610f5760fc612c6b565b6000610f6360fc612c81565b9050610f6f8782612c8f565b60006040518060c001604052808381526020018681526020018781526020018881526020018515158152602001600015158152509050610faf8282612e5d565b8192505050600160c98190555095945050505050565b610fe083838360405180602001604052806000815250611d92565b505050565b610fed61277c565b73ffffffffffffffffffffffffffffffffffffffff1661100b6118a2565b73ffffffffffffffffffffffffffffffffffffffff1614611061576040517f08c379a000000000000000000000000000000000000000000000000000000000815260040161105890614d59565b60405180910390fd5b8060fe9080519060200190611077929190613ba1565b5050565b6000806067600084815260200190815260200160002060009054906101000a900473ffffffffffffffffffffffffffffffffffffffff169050600073ffffffffffffffffffffffffffffffffffffffff168173ffffffffffffffffffffffffffffffffffffffff161415611124576040517f08c379a000000000000000000000000000000000000000000000000000000000815260040161111b90614deb565b60405180910390fd5b80915050919050565b61113683612710565b611175576040517f08c379a000000000000000000000000000000000000000000000000000000000815260040161116c90614ac6565b60405180910390fd5b6000811161118257600080fd5b61118a61277c565b73ffffffffffffffffffffffffffffffffffffffff166111a98461107b565b73ffffffffffffffffffffffffffffffffffffffff16146111c957600080fd5b8160fd600085815260200190815260200160002060040160006101000a81548160ff0219169083151502179055506112018382612500565b505050565b60008073ffffffffffffffffffffffffffffffffffffffff168273ffffffffffffffffffffffffffffffffffffffff161415611277576040517f08c379a000000000000000000000000000000000000000000000000000000000815260040161126e90614e7d565b60405180910390fd5b606860008373ffffffffffffffffffffffffffffffffffffffff1673ffffffffffffffffffffffffffffffffffffffff168152602001908152602001600020549050919050565b6112c661277c565b73ffffffffffffffffffffffffffffffffffffffff166112e46118a2565b73ffffffffffffffffffffffffffffffffffffffff161461133a576040517f08c379a000000000000000000000000000000000000000000000000000000000815260040161133190614d59565b60405180910390fd5b6113446000612f5f565b565b600260c954141561138c576040517f08c379a000000000000000000000000000000000000000000000000000000000815260040161138390614a34565b60405180910390fd5b600260c9819055506001151560fd600083815260200190815260200160002060040160019054906101000a900460ff161515146113c857600080fd5b600073ffffffffffffffffffffffffffffffffffffffff163373ffffffffffffffffffffffffffffffffffffffff161415801561143957506114098161107b565b73ffffffffffffffffffffffffffffffffffffffff163373ffffffffffffffffffffffffffffffffffffffff1614155b61144257600080fd5b600061144d8261107b565b905060fb60009054906101000a900473ffffffffffffffffffffffffffffffffffffffff1673ffffffffffffffffffffffffffffffffffffffff166323b872dd338361019060fd6000888152602001908152602001600020600101546114b39190614b44565b60fd6000888152602001908152602001600020600101546114d49190614e9d565b6040518463ffffffff1660e01b81526004016114f293929190614b96565b602060405180830381600087803b15801561150c57600080fd5b505af1158015611520573d6000803e3d6000fd5b505050506040513d601f19601f820116820180604052508101906115449190614be2565b611583576040517f08c379a000000000000000000000000000000000000000000000000000000000815260040161157a90614f43565b60405180910390fd5b60fb60009054906101000a900473ffffffffffffffffffffffffffffffffffffffff1673ffffffffffffffffffffffffffffffffffffffff166323b872dd337372f279333f2294c086312254905b08823918d26c61019060fd6000888152602001908152602001600020600101546115fb9190614b44565b6040518463ffffffff1660e01b815260040161161993929190614b96565b602060405180830381600087803b15801561163357600080fd5b505af1158015611647573d6000803e3d6000fd5b505050506040513d601f19601f8201168201806040525081019061166b9190614be2565b6116aa576040517f08c379a00000000000000000000000000000000000000000000000000000000081526004016116a190614fd5565b60405180910390fd5b6116b581338461291b565b600060fd600084815260200190815260200160002060040160006101000a81548160ff02191690831515021790555050600160c98190555050565b600060019054906101000a900460ff1680611716575060008054906101000a900460ff16155b611755576040517f08c379a000000000000000000000000000000000000000000000000000000000815260040161174c90615067565b60405180910390fd5b60008060019054906101000a900460ff1615905080156117a5576001600060016101000a81548160ff02191690831515021790555060016000806101000a81548160ff0219169083151502179055505b6117ad613025565b6117b561310e565b6118296040518060400160405280600b81526020017f50415952554553544f52450000000000000000000000000000000000000000008152506040518060400160405280600b81526020017f50415952554553544f52450000000000000000000000000000000000000000008152506131ef565b73e0ce60af0850bf54072635e66e79df17082a110960fb60006101000a81548173ffffffffffffffffffffffffffffffffffffffff021916908373ffffffffffffffffffffffffffffffffffffffff160217905550801561189f5760008060016101000a81548160ff0219169083151502179055505b50565b6000609760009054906101000a900473ffffffffffffffffffffffffffffffffffffffff16905090565b606060006118da60fc612c81565b67ffffffffffffffff8111156118f3576118f26140b0565b5b60405190808252806020026020018201604052801561192c57816020015b611919613b67565b8152602001906001900390816119115790505b509050600080600190505b600161194360fc612c81565b61194d9190615087565b811015611b50576001151560fd600083815260200190815260200160002060040160009054906101000a900460ff1615151415611b3d5760fd60008281526020019081526020016000206040518060c001604052908160008201548152602001600182015481526020016002820180546119c69061476e565b80601f01602080910402602001604051908101604052809291908181526020018280546119f29061476e565b8015611a3f5780601f10611a1457610100808354040283529160200191611a3f565b820191906000526020600020905b815481529060010190602001808311611a2257829003601f168201915b50505050508152602001600382018054611a589061476e565b80601f0160208091040260200160405190810160405280929190818152602001828054611a849061476e565b8015611ad15780601f10611aa657610100808354040283529160200191611ad1565b820191906000526020600020905b815481529060010190602001808311611ab457829003601f168201915b505050505081526020016004820160009054906101000a900460ff161515151581526020016004820160019054906101000a900460ff161515151581525050838381518110611b2357611b226150dd565b5b60200260200101819052508180611b399061510c565b9250505b8080611b489061510c565b915050611937565b50819250505090565b606060668054611b689061476e565b80601f0160208091040260200160405190810160405280929190818152602001828054611b949061476e565b8015611be15780601f10611bb657610100808354040283529160200191611be1565b820191906000526020600020905b815481529060010190602001808311611bc457829003601f168201915b5050505050905090565b611bf361277c565b73ffffffffffffffffffffffffffffffffffffffff168273ffffffffffffffffffffffffffffffffffffffff161415611c61576040517f08c379a0000000000000000000000000000000000000000000000000000000008152600401611c58906151a1565b60405180910390fd5b80606a6000611c6e61277c565b73ffffffffffffffffffffffffffffffffffffffff1673ffffffffffffffffffffffffffffffffffffffff16815260200190815260200160002060008473ffffffffffffffffffffffffffffffffffffffff1673ffffffffffffffffffffffffffffffffffffffff16815260200190815260200160002060006101000a81548160ff0219169083151502179055508173ffffffffffffffffffffffffffffffffffffffff16611d1b61277c565b73ffffffffffffffffffffffffffffffffffffffff167f17307eab39ab6107e8899845ad3d59bd9653f200f220920489ca2b5937696c3183604051611d609190613cf8565b60405180910390a35050565b60fb60009054906101000a900473ffffffffffffffffffffffffffffffffffffffff1681565b611da3611d9d61277c565b8361283d565b611de2576040517f08c379a0000000000000000000000000000000000000000000000000000000008152600401611dd9906149c8565b60405180910390fd5b611dee848484846132e4565b50505050565b6000600260c9541415611e3c576040517f08c379a0000000000000000000000000000000000000000000000000000000008152600401611e3390614a34565b60405180910390fd5b600260c98190555060008311611e5157600080fd5b60fb60009054906101000a900473ffffffffffffffffffffffffffffffffffffffff1673ffffffffffffffffffffffffffffffffffffffff166323b872dd337372f279333f2294c086312254905b08823918d26c60c887611eb29190614b44565b6040518463ffffffff1660e01b8152600401611ed093929190614b96565b602060405180830381600087803b158015611eea57600080fd5b505af1158015611efe573d6000803e3d6000fd5b505050506040513d601f19601f82011682018060405250810190611f229190614be2565b611f61576040517f08c379a0000000000000000000000000000000000000000000000000000000008152600401611f5890615233565b60405180910390fd5b611f6b60fc612c6b565b6000611f7760fc612c81565b9050611f838782612c8f565b60006040518060c001604052808381526020018681526020018781526020018881526020018515158152602001600115158152509050611fc38282612e5d565b8192505050600160c98190555095945050505050565b600260c954141561201f576040517f08c379a000000000000000000000000000000000000000000000000000000000815260040161201690614a34565b60405180910390fd5b600260c9819055506000151560fd600083815260200190815260200160002060040160019054906101000a900460ff1615151461205b57600080fd5b600073ffffffffffffffffffffffffffffffffffffffff163373ffffffffffffffffffffffffffffffffffffffff16141580156120cc575061209c8161107b565b73ffffffffffffffffffffffffffffffffffffffff163373ffffffffffffffffffffffffffffffffffffffff1614155b6120d557600080fd5b60c860fd6000838152602001908152602001600020600101546120f89190614b44565b60fd6000838152602001908152602001600020600101546121199190615087565b341461212457600080fd5b600061212f8261107b565b90506121528160c8346121429190614b44565b3461214d9190614e9d565b612b77565b61217c7372f279333f2294c086312254905b08823918d26c60c8346121779190614b44565b612b77565b61218781338461291b565b600060fd600084815260200190815260200160002060040160006101000a81548160ff02191690831515021790555050600160c98190555050565b60606121cd82612710565b61220c576040517f08c379a0000000000000000000000000000000000000000000000000000000008152600401612203906152c5565b60405180910390fd5b6000612216613340565b905060008151116122365760405180602001604052806000815250612261565b80612240846133d2565b604051602001612251929190615321565b6040516020818303038152906040525b915050919050565b600061227482612710565b6122b3576040517f08c379a00000000000000000000000000000000000000000000000000000000081526004016122aa906153b7565b60405180910390fd5b60fd6000838152602001908152602001600020600101549050919050565b600260c9541415612317576040517f08c379a000000000000000000000000000000000000000000000000000000000815260040161230e90614a34565b60405180910390fd5b600260c98190555061232882612710565b612367576040517f08c379a000000000000000000000000000000000000000000000000000000000815260040161235e90614ac6565b60405180910390fd5b6000811161237457600080fd5b61237c61277c565b73ffffffffffffffffffffffffffffffffffffffff1661239b8361107b565b73ffffffffffffffffffffffffffffffffffffffff16146123bb57600080fd5b6064816123c89190614b44565b3414612409576040517f08c379a000000000000000000000000000000000000000000000000000000000815260040161240090614ced565b60405180910390fd5b6124277372f279333f2294c086312254905b08823918d26c34612b77565b600160fd600084815260200190815260200160002060040160006101000a81548160ff0219169083151502179055506124608282612500565b600160c9819055505050565b6000606a60008473ffffffffffffffffffffffffffffffffffffffff1673ffffffffffffffffffffffffffffffffffffffff16815260200190815260200160002060008373ffffffffffffffffffffffffffffffffffffffff1673ffffffffffffffffffffffffffffffffffffffff16815260200190815260200160002060009054906101000a900460ff16905092915050565b61250982612710565b612548576040517f08c379a000000000000000000000000000000000000000000000000000000000815260040161253f90615449565b60405180910390fd5b61255061277c565b73ffffffffffffffffffffffffffffffffffffffff1661256f8361107b565b73ffffffffffffffffffffffffffffffffffffffff161461258f57600080fd5b8060fd6000848152602001908152602001600020600101819055505050565b6125b661277c565b73ffffffffffffffffffffffffffffffffffffffff166125d46118a2565b73ffffffffffffffffffffffffffffffffffffffff161461262a576040517f08c379a000000000000000000000000000000000000000000000000000000000815260040161262190614d59565b60405180910390fd5b600073ffffffffffffffffffffffffffffffffffffffff168173ffffffffffffffffffffffffffffffffffffffff16141561269a576040517f08c379a0000000000000000000000000000000000000000000000000000000008152600401612691906154db565b60405180910390fd5b6126a381612f5f565b50565b60007f01ffc9a7000000000000000000000000000000000000000000000000000000007bffffffffffffffffffffffffffffffffffffffffffffffffffffffff1916827bffffffffffffffffffffffffffffffffffffffffffffffffffffffff1916149050919050565b60008073ffffffffffffffffffffffffffffffffffffffff166067600084815260200190815260200160002060009054906101000a900473ffffffffffffffffffffffffffffffffffffffff1673ffffffffffffffffffffffffffffffffffffffff1614159050919050565b600033905090565b816069600083815260200190815260200160002060006101000a81548173ffffffffffffffffffffffffffffffffffffffff021916908373ffffffffffffffffffffffffffffffffffffffff160217905550808273ffffffffffffffffffffffffffffffffffffffff166127f78361107b565b73ffffffffffffffffffffffffffffffffffffffff167f8c5be1e5ebec7d5bd14f71427d1e84f3dd0314c0f7b2291e5b200ac8c7c3b92560405160405180910390a45050565b600061284882612710565b612887576040517f08c379a000000000000000000000000000000000000000000000000000000000815260040161287e9061556d565b60405180910390fd5b60006128928361107b565b90508073ffffffffffffffffffffffffffffffffffffffff168473ffffffffffffffffffffffffffffffffffffffff16148061290157508373ffffffffffffffffffffffffffffffffffffffff166128e98461089b565b73ffffffffffffffffffffffffffffffffffffffff16145b806129125750612911818561246c565b5b91505092915050565b8273ffffffffffffffffffffffffffffffffffffffff1661293b8261107b565b73ffffffffffffffffffffffffffffffffffffffff1614612991576040517f08c379a0000000000000000000000000000000000000000000000000000000008152600401612988906155ff565b60405180910390fd5b600073ffffffffffffffffffffffffffffffffffffffff168273ffffffffffffffffffffffffffffffffffffffff161415612a01576040517f08c379a00000000000000000000000000000000000000000000000000000000081526004016129f890615691565b60405180910390fd5b612a0c838383613533565b612a17600082612784565b6001606860008573ffffffffffffffffffffffffffffffffffffffff1673ffffffffffffffffffffffffffffffffffffffff1681526020019081526020016000206000828254612a679190614e9d565b925050819055506001606860008473ffffffffffffffffffffffffffffffffffffffff1673ffffffffffffffffffffffffffffffffffffffff1681526020019081526020016000206000828254612abe9190615087565b92505081905550816067600083815260200190815260200160002060006101000a81548173ffffffffffffffffffffffffffffffffffffffff021916908373ffffffffffffffffffffffffffffffffffffffff160217905550808273ffffffffffffffffffffffffffffffffffffffff168473ffffffffffffffffffffffffffffffffffffffff167fddf252ad1be2c89b69c2b068fc378daa952ba7f163c4a11628f55a4df523b3ef60405160405180910390a4505050565b80471015612bba576040517f08c379a0000000000000000000000000000000000000000000000000000000008152600401612bb1906156fd565b60405180910390fd5b60008273ffffffffffffffffffffffffffffffffffffffff1682604051612be09061574e565b60006040518083038185875af1925050503d8060008114612c1d576040519150601f19603f3d011682016040523d82523d6000602084013e612c22565b606091505b5050905080612c66576040517f08c379a0000000000000000000000000000000000000000000000000000000008152600401612c5d906157d5565b60405180910390fd5b505050565b6001816000016000828254019250508190555050565b600081600001549050919050565b600073ffffffffffffffffffffffffffffffffffffffff168273ffffffffffffffffffffffffffffffffffffffff161415612cff576040517f08c379a0000000000000000000000000000000000000000000000000000000008152600401612cf690615841565b60405180910390fd5b612d0881612710565b15612d48576040517f08c379a0000000000000000000000000000000000000000000000000000000008152600401612d3f906158ad565b60405180910390fd5b612d5460008383613533565b6001606860008473ffffffffffffffffffffffffffffffffffffffff1673ffffffffffffffffffffffffffffffffffffffff1681526020019081526020016000206000828254612da49190615087565b92505081905550816067600083815260200190815260200160002060006101000a81548173ffffffffffffffffffffffffffffffffffffffff021916908373ffffffffffffffffffffffffffffffffffffffff160217905550808273ffffffffffffffffffffffffffffffffffffffff16600073ffffffffffffffffffffffffffffffffffffffff167fddf252ad1be2c89b69c2b068fc378daa952ba7f163c4a11628f55a4df523b3ef60405160405180910390a45050565b612e6682612710565b612e6f57600080fd5b612e7761277c565b73ffffffffffffffffffffffffffffffffffffffff16612e968361107b565b73ffffffffffffffffffffffffffffffffffffffff1614612eb657600080fd5b8060fd600084815260200190815260200160002060008201518160000155602082015181600101556040820151816002019080519060200190612efa929190613ba1565b506060820151816003019080519060200190612f17929190613ba1565b5060808201518160040160006101000a81548160ff02191690831515021790555060a08201518160040160016101000a81548160ff0219169083151502179055509050505050565b6000609760009054906101000a900473ffffffffffffffffffffffffffffffffffffffff16905081609760006101000a81548173ffffffffffffffffffffffffffffffffffffffff021916908373ffffffffffffffffffffffffffffffffffffffff1602179055508173ffffffffffffffffffffffffffffffffffffffff168173ffffffffffffffffffffffffffffffffffffffff167f8be0079c531659141344cd1fd0a4f28419497f9722a3daafe3b4186f6b6457e060405160405180910390a35050565b600060019054906101000a900460ff168061304b575060008054906101000a900460ff16155b61308a576040517f08c379a000000000000000000000000000000000000000000000000000000000815260040161308190615067565b60405180910390fd5b60008060019054906101000a900460ff1615905080156130da576001600060016101000a81548160ff02191690831515021790555060016000806101000a81548160ff0219169083151502179055505b6130e2613538565b6130ea613611565b801561310b5760008060016101000a81548160ff0219169083151502179055505b50565b600060019054906101000a900460ff1680613134575060008054906101000a900460ff16155b613173576040517f08c379a000000000000000000000000000000000000000000000000000000000815260040161316a90615067565b60405180910390fd5b60008060019054906101000a900460ff1615905080156131c3576001600060016101000a81548160ff02191690831515021790555060016000806101000a81548160ff0219169083151502179055505b6131cb6136fa565b80156131ec5760008060016101000a81548160ff0219169083151502179055505b50565b600060019054906101000a900460ff1680613215575060008054906101000a900460ff16155b613254576040517f08c379a000000000000000000000000000000000000000000000000000000000815260040161324b90615067565b60405180910390fd5b60008060019054906101000a900460ff1615905080156132a4576001600060016101000a81548160ff02191690831515021790555060016000806101000a81548160ff0219169083151502179055505b6132ac613538565b6132b46137db565b6132be83836138b4565b80156132df5760008060016101000a81548160ff0219169083151502179055505b505050565b6132ef84848461291b565b6132fb848484846139bd565b61333a576040517f08c379a00000000000000000000000000000000000000000000000000000000081526004016133319061593f565b60405180910390fd5b50505050565b606060fe805461334f9061476e565b80601f016020809104026020016040519081016040528092919081815260200182805461337b9061476e565b80156133c85780601f1061339d576101008083540402835291602001916133c8565b820191906000526020600020905b8154815290600101906020018083116133ab57829003601f168201915b5050505050905090565b6060600082141561341a576040518060400160405280600181526020017f3000000000000000000000000000000000000000000000000000000000000000815250905061352e565b600082905060005b6000821461344c5780806134359061510c565b915050600a826134459190614b44565b9150613422565b60008167ffffffffffffffff811115613468576134676140b0565b5b6040519080825280601f01601f19166020018201604052801561349a5781602001600182028036833780820191505090505b5090505b60008514613527576001826134b39190614e9d565b9150600a856134c2919061595f565b60306134ce9190615087565b60f81b8183815181106134e4576134e36150dd565b5b60200101907effffffffffffffffffffffffffffffffffffffffffffffffffffffffffffff1916908160001a905350600a856135209190614b44565b945061349e565b8093505050505b919050565b505050565b600060019054906101000a900460ff168061355e575060008054906101000a900460ff16155b61359d576040517f08c379a000000000000000000000000000000000000000000000000000000000815260040161359490615067565b60405180910390fd5b60008060019054906101000a900460ff1615905080156135ed576001600060016101000a81548160ff02191690831515021790555060016000806101000a81548160ff0219169083151502179055505b801561360e5760008060016101000a81548160ff0219169083151502179055505b50565b600060019054906101000a900460ff1680613637575060008054906101000a900460ff16155b613676576040517f08c379a000000000000000000000000000000000000000000000000000000000815260040161366d90615067565b60405180910390fd5b60008060019054906101000a900460ff1615905080156136c6576001600060016101000a81548160ff02191690831515021790555060016000806101000a81548160ff0219169083151502179055505b6136d66136d161277c565b612f5f565b80156136f75760008060016101000a81548160ff0219169083151502179055505b50565b600060019054906101000a900460ff1680613720575060008054906101000a900460ff16155b61375f576040517f08c379a000000000000000000000000000000000000000000000000000000000815260040161375690615067565b60405180910390fd5b60008060019054906101000a900460ff1615905080156137af576001600060016101000a81548160ff02191690831515021790555060016000806101000a81548160ff0219169083151502179055505b600160c98190555080156137d85760008060016101000a81548160ff0219169083151502179055505b50565b600060019054906101000a900460ff1680613801575060008054906101000a900460ff16155b613840576040517f08c379a000000000000000000000000000000000000000000000000000000000815260040161383790615067565b60405180910390fd5b60008060019054906101000a900460ff161590508015613890576001600060016101000a81548160ff02191690831515021790555060016000806101000a81548160ff0219169083151502179055505b80156138b15760008060016101000a81548160ff0219169083151502179055505b50565b600060019054906101000a900460ff16806138da575060008054906101000a900460ff16155b613919576040517f08c379a000000000000000000000000000000000000000000000000000000000815260040161391090615067565b60405180910390fd5b60008060019054906101000a900460ff161590508015613969576001600060016101000a81548160ff02191690831515021790555060016000806101000a81548160ff0219169083151502179055505b826065908051906020019061397f929190613ba1565b508160669080519060200190613996929190613ba1565b5080156139b85760008060016101000a81548160ff0219169083151502179055505b505050565b60006139de8473ffffffffffffffffffffffffffffffffffffffff16613b54565b15613b47578373ffffffffffffffffffffffffffffffffffffffff1663150b7a02613a0761277c565b8786866040518563ffffffff1660e01b8152600401613a2994939291906159e5565b602060405180830381600087803b158015613a4357600080fd5b505af1925050508015613a7457506040513d601f19601f82011682018060405250810190613a719190615a46565b60015b613af7573d8060008114613aa4576040519150601f19603f3d011682016040523d82523d6000602084013e613aa9565b606091505b50600081511415613aef576040517f08c379a0000000000000000000000000000000000000000000000000000000008152600401613ae69061593f565b60405180910390fd5b805181602001fd5b63150b7a0260e01b7bffffffffffffffffffffffffffffffffffffffffffffffffffffffff1916817bffffffffffffffffffffffffffffffffffffffffffffffffffffffff191614915050613b4c565b600190505b949350505050565b600080823b905060008111915050919050565b6040518060c00160405280600081526020016000815260200160608152602001606081526020016000151581526020016000151581525090565b828054613bad9061476e565b90600052602060002090601f016020900481019282613bcf5760008555613c16565b82601f10613be857805160ff1916838001178555613c16565b82800160010185558215613c16579182015b82811115613c15578251825591602001919060010190613bfa565b5b509050613c239190613c27565b5090565b5b80821115613c40576000816000905550600101613c28565b5090565b6000604051905090565b600080fd5b600080fd5b60007fffffffff0000000000000000000000000000000000000000000000000000000082169050919050565b613c8d81613c58565b8114613c9857600080fd5b50565b600081359050613caa81613c84565b92915050565b600060208284031215613cc657613cc5613c4e565b5b6000613cd484828501613c9b565b91505092915050565b60008115159050919050565b613cf281613cdd565b82525050565b6000602082019050613d0d6000830184613ce9565b92915050565b600081519050919050565b600082825260208201905092915050565b60005b83811015613d4d578082015181840152602081019050613d32565b83811115613d5c576000848401525b50505050565b6000601f19601f8301169050919050565b6000613d7e82613d13565b613d888185613d1e565b9350613d98818560208601613d2f565b613da181613d62565b840191505092915050565b60006020820190508181036000830152613dc68184613d73565b905092915050565b6000819050919050565b613de181613dce565b8114613dec57600080fd5b50565b600081359050613dfe81613dd8565b92915050565b600060208284031215613e1a57613e19613c4e565b5b6000613e2884828501613def565b91505092915050565b600073ffffffffffffffffffffffffffffffffffffffff82169050919050565b6000613e5c82613e31565b9050919050565b613e6c81613e51565b82525050565b6000602082019050613e876000830184613e63565b92915050565b613e9681613e51565b8114613ea157600080fd5b50565b600081359050613eb381613e8d565b92915050565b60008060408385031215613ed057613ecf613c4e565b5b6000613ede85828601613ea4565b9250506020613eef85828601613def565b9150509250929050565b613f0281613dce565b82525050565b600082825260208201905092915050565b6000613f2482613d13565b613f2e8185613f08565b9350613f3e818560208601613d2f565b613f4781613d62565b840191505092915050565b613f5b81613cdd565b82525050565b600060c083016000830151613f796000860182613ef9565b506020830151613f8c6020860182613ef9565b5060408301518482036040860152613fa48282613f19565b91505060608301518482036060860152613fbe8282613f19565b9150506080830151613fd36080860182613f52565b5060a0830151613fe660a0860182613f52565b508091505092915050565b6000602082019050818103600083015261400b8184613f61565b905092915050565b60008060006060848603121561402c5761402b613c4e565b5b600061403a86828701613ea4565b935050602061404b86828701613ea4565b925050604061405c86828701613def565b9150509250925092565b6000806040838503121561407d5761407c613c4e565b5b600061408b85828601613def565b925050602061409c85828601613def565b9150509250929050565b600080fd5b600080fd5b7f4e487b7100000000000000000000000000000000000000000000000000000000600052604160045260246000fd5b6140e882613d62565b810181811067ffffffffffffffff82111715614107576141066140b0565b5b80604052505050565b600061411a613c44565b905061412682826140df565b919050565b600067ffffffffffffffff821115614146576141456140b0565b5b61414f82613d62565b9050602081019050919050565b82818337600083830152505050565b600061417e6141798461412b565b614110565b90508281526020810184848401111561419a576141996140ab565b5b6141a584828561415c565b509392505050565b600082601f8301126141c2576141c16140a6565b5b81356141d284826020860161416b565b91505092915050565b6141e481613cdd565b81146141ef57600080fd5b50565b600081359050614201816141db565b92915050565b600080600080600060a0868803121561422357614222613c4e565b5b600061423188828901613ea4565b955050602086013567ffffffffffffffff81111561425257614251613c53565b5b61425e888289016141ad565b945050604086013567ffffffffffffffff81111561427f5761427e613c53565b5b61428b888289016141ad565b935050606061429c88828901613def565b92505060806142ad888289016141f2565b9150509295509295909350565b6142c381613dce565b82525050565b60006020820190506142de60008301846142ba565b92915050565b6000602082840312156142fa576142f9613c4e565b5b600082013567ffffffffffffffff81111561431857614317613c53565b5b614324848285016141ad565b91505092915050565b60008060006060848603121561434657614345613c4e565b5b600061435486828701613def565b9350506020614365868287016141f2565b925050604061437686828701613def565b9150509250925092565b60006020828403121561439657614395613c4e565b5b60006143a484828501613ea4565b91505092915050565b600081519050919050565b600082825260208201905092915050565b6000819050602082019050919050565b600060c0830160008301516143f16000860182613ef9565b5060208301516144046020860182613ef9565b506040830151848203604086015261441c8282613f19565b915050606083015184820360608601526144368282613f19565b915050608083015161444b6080860182613f52565b5060a083015161445e60a0860182613f52565b508091505092915050565b600061447583836143d9565b905092915050565b6000602082019050919050565b6000614495826143ad565b61449f81856143b8565b9350836020820285016144b1856143c9565b8060005b858110156144ed57848403895281516144ce8582614469565b94506144d98361447d565b925060208a019950506001810190506144b5565b50829750879550505050505092915050565b60006020820190508181036000830152614519818461448a565b905092915050565b6000806040838503121561453857614537613c4e565b5b600061454685828601613ea4565b9250506020614557858286016141f2565b9150509250929050565b6000819050919050565b600061458661458161457c84613e31565b614561565b613e31565b9050919050565b60006145988261456b565b9050919050565b60006145aa8261458d565b9050919050565b6145ba8161459f565b82525050565b60006020820190506145d560008301846145b1565b92915050565b600067ffffffffffffffff8211156145f6576145f56140b0565b5b6145ff82613d62565b9050602081019050919050565b600061461f61461a846145db565b614110565b90508281526020810184848401111561463b5761463a6140ab565b5b61464684828561415c565b509392505050565b600082601f830112614663576146626140a6565b5b813561467384826020860161460c565b91505092915050565b6000806000806080858703121561469657614695613c4e565b5b60006146a487828801613ea4565b94505060206146b587828801613ea4565b93505060406146c687828801613def565b925050606085013567ffffffffffffffff8111156146e7576146e6613c53565b5b6146f38782880161464e565b91505092959194509250565b6000806040838503121561471657614715613c4e565b5b600061472485828601613ea4565b925050602061473585828601613ea4565b9150509250929050565b7f4e487b7100000000000000000000000000000000000000000000000000000000600052602260045260246000fd5b6000600282049050600182168061478657607f821691505b6020821081141561479a5761479961473f565b5b50919050565b7f4552433732313a20617070726f76656420717565727920666f72206e6f6e657860008201527f697374656e7420746f6b656e0000000000000000000000000000000000000000602082015250565b60006147fc602c83613d1e565b9150614807826147a0565b604082019050919050565b6000602082019050818103600083015261482b816147ef565b9050919050565b7f4552433732313a20617070726f76616c20746f2063757272656e74206f776e6560008201527f7200000000000000000000000000000000000000000000000000000000000000602082015250565b600061488e602183613d1e565b915061489982614832565b604082019050919050565b600060208201905081810360008301526148bd81614881565b9050919050565b7f4552433732313a20617070726f76652063616c6c6572206973206e6f74206f7760008201527f6e6572206e6f7220617070726f76656420666f7220616c6c0000000000000000602082015250565b6000614920603883613d1e565b915061492b826148c4565b604082019050919050565b6000602082019050818103600083015261494f81614913565b9050919050565b7f4552433732313a207472616e736665722063616c6c6572206973206e6f74206f60008201527f776e6572206e6f7220617070726f766564000000000000000000000000000000602082015250565b60006149b2603183613d1e565b91506149bd82614956565b604082019050919050565b600060208201905081810360008301526149e1816149a5565b9050919050565b7f5265656e7472616e637947756172643a207265656e7472616e742063616c6c00600082015250565b6000614a1e601f83613d1e565b9150614a29826149e8565b602082019050919050565b60006020820190508181036000830152614a4d81614a11565b9050919050565b7f4552433732314d657461646174613a2053616c6520736574206f66206e6f6e6560008201527f78697374656e7420746f6b656e00000000000000000000000000000000000000602082015250565b6000614ab0602d83613d1e565b9150614abb82614a54565b604082019050919050565b60006020820190508181036000830152614adf81614aa3565b9050919050565b7f4e487b7100000000000000000000000000000000000000000000000000000000600052601260045260246000fd5b7f4e487b7100000000000000000000000000000000000000000000000000000000600052601160045260246000fd5b6000614b4f82613dce565b9150614b5a83613dce565b925082614b6a57614b69614ae6565b5b828204905092915050565b6000614b808261458d565b9050919050565b614b9081614b75565b82525050565b6000606082019050614bab6000830186613e63565b614bb86020830185614b87565b614bc560408301846142ba565b949350505050565b600081519050614bdc816141db565b92915050565b600060208284031215614bf857614bf7613c4e565b5b6000614c0684828501614bcd565b91505092915050565b7f43616e6e6f74205472616e7366657220526573656c6c696e6720436f6d6d697360008201527f73696f6e2041732050726f70656c000000000000000000000000000000000000602082015250565b6000614c6b602e83613d1e565b9150614c7682614c0f565b604082019050919050565b60006020820190508181036000830152614c9a81614c5e565b9050919050565b7f496e76616c696420636f6d6d697373696f6e2076616c75650000000000000000600082015250565b6000614cd7601883613d1e565b9150614ce282614ca1565b602082019050919050565b60006020820190508181036000830152614d0681614cca565b9050919050565b7f4f776e61626c653a2063616c6c6572206973206e6f7420746865206f776e6572600082015250565b6000614d43602083613d1e565b9150614d4e82614d0d565b602082019050919050565b60006020820190508181036000830152614d7281614d36565b9050919050565b7f4552433732313a206f776e657220717565727920666f72206e6f6e657869737460008201527f656e7420746f6b656e0000000000000000000000000000000000000000000000602082015250565b6000614dd5602983613d1e565b9150614de082614d79565b604082019050919050565b60006020820190508181036000830152614e0481614dc8565b9050919050565b7f4552433732313a2062616c616e636520717565727920666f7220746865207a6560008201527f726f206164647265737300000000000000000000000000000000000000000000602082015250565b6000614e67602a83613d1e565b9150614e7282614e0b565b604082019050919050565b60006020820190508181036000830152614e9681614e5a565b9050919050565b6000614ea882613dce565b9150614eb383613dce565b925082821015614ec657614ec5614b15565b5b828203905092915050565b7f43616e6e6f74205472616e73666572204e66742050726963652041732050726f60008201527f70656c0000000000000000000000000000000000000000000000000000000000602082015250565b6000614f2d602383613d1e565b9150614f3882614ed1565b604082019050919050565b60006020820190508181036000830152614f5c81614f20565b9050919050565b7f43616e6e6f74205472616e7366657220427579696e6720436f6d6d697373696f60008201527f6e2041732050726f70656c000000000000000000000000000000000000000000602082015250565b6000614fbf602b83613d1e565b9150614fca82614f63565b604082019050919050565b60006020820190508181036000830152614fee81614fb2565b9050919050565b7f496e697469616c697a61626c653a20636f6e747261637420697320616c72656160008201527f647920696e697469616c697a6564000000000000000000000000000000000000602082015250565b6000615051602e83613d1e565b915061505c82614ff5565b604082019050919050565b6000602082019050818103600083015261508081615044565b9050919050565b600061509282613dce565b915061509d83613dce565b9250827fffffffffffffffffffffffffffffffffffffffffffffffffffffffffffffffff038211156150d2576150d1614b15565b5b828201905092915050565b7f4e487b7100000000000000000000000000000000000000000000000000000000600052603260045260246000fd5b600061511782613dce565b91507fffffffffffffffffffffffffffffffffffffffffffffffffffffffffffffffff82141561514a57615149614b15565b5b600182019050919050565b7f4552433732313a20617070726f766520746f2063616c6c657200000000000000600082015250565b600061518b601983613d1e565b915061519682615155565b602082019050919050565b600060208201905081810360008301526151ba8161517e565b9050919050565b7f43616e6e6f74205472616e73666572204d696e74696e6720436f6d6d6973736960008201527f6f6e2041732050726f70656c0000000000000000000000000000000000000000602082015250565b600061521d602c83613d1e565b9150615228826151c1565b604082019050919050565b6000602082019050818103600083015261524c81615210565b9050919050565b7f4552433732314d657461646174613a2055524920717565727920666f72206e6f60008201527f6e6578697374656e7420746f6b656e0000000000000000000000000000000000602082015250565b60006152af602f83613d1e565b91506152ba82615253565b604082019050919050565b600060208201905081810360008301526152de816152a2565b9050919050565b600081905092915050565b60006152fb82613d13565b61530581856152e5565b9350615315818560208601613d2f565b80840191505092915050565b600061532d82856152f0565b915061533982846152f0565b91508190509392505050565b7f4552433732314d657461646174613a20507269636520717565727920666f722060008201527f6e6f6e6578697374656e7420746f6b656e000000000000000000000000000000602082015250565b60006153a1603183613d1e565b91506153ac82615345565b604082019050919050565b600060208201905081810360008301526153d081615394565b9050919050565b7f4552433732314d657461646174613a20507269636520736574206f66206e6f6e60008201527f6578697374656e7420746f6b656e000000000000000000000000000000000000602082015250565b6000615433602e83613d1e565b915061543e826153d7565b604082019050919050565b6000602082019050818103600083015261546281615426565b9050919050565b7f4f776e61626c653a206e6577206f776e657220697320746865207a65726f206160008201527f6464726573730000000000000000000000000000000000000000000000000000602082015250565b60006154c5602683613d1e565b91506154d082615469565b604082019050919050565b600060208201905081810360008301526154f4816154b8565b9050919050565b7f4552433732313a206f70657261746f7220717565727920666f72206e6f6e657860008201527f697374656e7420746f6b656e0000000000000000000000000000000000000000602082015250565b6000615557602c83613d1e565b9150615562826154fb565b604082019050919050565b600060208201905081810360008301526155868161554a565b9050919050565b7f4552433732313a207472616e73666572206f6620746f6b656e2074686174206960008201527f73206e6f74206f776e0000000000000000000000000000000000000000000000602082015250565b60006155e9602983613d1e565b91506155f48261558d565b604082019050919050565b60006020820190508181036000830152615618816155dc565b9050919050565b7f4552433732313a207472616e7366657220746f20746865207a65726f2061646460008201527f7265737300000000000000000000000000000000000000000000000000000000602082015250565b600061567b602483613d1e565b91506156868261561f565b604082019050919050565b600060208201905081810360008301526156aa8161566e565b9050919050565b7f416464726573733a20696e73756666696369656e742062616c616e6365000000600082015250565b60006156e7601d83613d1e565b91506156f2826156b1565b602082019050919050565b60006020820190508181036000830152615716816156da565b9050919050565b600081905092915050565b50565b600061573860008361571d565b915061574382615728565b600082019050919050565b60006157598261572b565b9150819050919050565b7f416464726573733a20756e61626c6520746f2073656e642076616c75652c207260008201527f6563697069656e74206d61792068617665207265766572746564000000000000602082015250565b60006157bf603a83613d1e565b91506157ca82615763565b604082019050919050565b600060208201905081810360008301526157ee816157b2565b9050919050565b7f4552433732313a206d696e7420746f20746865207a65726f2061646472657373600082015250565b600061582b602083613d1e565b9150615836826157f5565b602082019050919050565b6000602082019050818103600083015261585a8161581e565b9050919050565b7f4552433732313a20746f6b656e20616c7265616479206d696e74656400000000600082015250565b6000615897601c83613d1e565b91506158a282615861565b602082019050919050565b600060208201905081810360008301526158c68161588a565b9050919050565b7f4552433732313a207472616e7366657220746f206e6f6e20455243373231526560008201527f63656976657220696d706c656d656e7465720000000000000000000000000000602082015250565b6000615929603283613d1e565b9150615934826158cd565b604082019050919050565b600060208201905081810360008301526159588161591c565b9050919050565b600061596a82613dce565b915061597583613dce565b92508261598557615984614ae6565b5b828206905092915050565b600081519050919050565b600082825260208201905092915050565b60006159b782615990565b6159c1818561599b565b93506159d1818560208601613d2f565b6159da81613d62565b840191505092915050565b60006080820190506159fa6000830187613e63565b615a076020830186613e63565b615a1460408301856142ba565b8181036060830152615a2681846159ac565b905095945050505050565b600081519050615a4081613c84565b92915050565b600060208284031215615a5c57615a5b613c4e565b5b6000615a6a84828501615a31565b9150509291505056fea2646970667358221220b102306d5d0018f33f9c1b878b801fad7017e162dc5c4f969ffd00f16e92453f64736f6c63430008090033",
  "immutableReferences": {},
  "source": "// SPDX-License-Identifier: MIT\npragma solidity >=0.4.22 <0.9.0;\npragma experimental ABIEncoderV2;\n\nimport \"../node_modules/@openzeppelin/contracts-upgradeable/token/ERC20/IERC20Upgradeable.sol\";\nimport \"../node_modules/@openzeppelin/contracts-upgradeable/token/ERC721/ERC721Upgradeable.sol\";\nimport \"../node_modules/@openzeppelin/contracts-upgradeable/access/OwnableUpgradeable.sol\";\nimport \"../node_modules/@openzeppelin/contracts-upgradeable/security/ReentrancyGuardUpgradeable.sol\";\nimport \"../node_modules/@openzeppelin/contracts-upgradeable/utils/CountersUpgradeable.sol\";\nimport \"../node_modules/@openzeppelin/contracts-upgradeable/utils/AddressUpgradeable.sol\";\ncontract PAYRUESTORE is ERC721Upgradeable, OwnableUpgradeable, ReentrancyGuardUpgradeable {\n    using CountersUpgradeable for CountersUpgradeable.Counter;\n\n    IERC20Upgradeable public propelToken;\n\n    CountersUpgradeable.Counter private _tokenIds;\n\n    address constant propelTokenAddress = 0xe0Ce60AF0850bF54072635e66E79Df17082A1109;\n    address constant  commissionReceiverAddress = 0x72F279333f2294c086312254905b08823918D26c;\n\n    mapping (uint256 => TokenMeta) private _tokenMeta;\n\n    string baseURI;\n\n    struct TokenMeta {\n        uint256 id;\n        uint256 price;\n        string name;\n        string uri;\n        bool sale;\n        bool priceInPropel;\n    }\n\n    function initialize() public initializer {\n        OwnableUpgradeable.__Ownable_init();\n        ReentrancyGuardUpgradeable.__ReentrancyGuard_init();\n        ERC721Upgradeable.__ERC721_init(\"PAYRUESTORE\", \"PAYRUESTORE\");\n        propelToken = IERC20Upgradeable(propelTokenAddress);\n    }\n\n\n    function _baseURI() internal view override virtual returns (string memory) {\n        return baseURI;\n    }\n\n    function setBaseURI(string memory _newBaseURI) public virtual onlyOwner {\n        baseURI = _newBaseURI;\n    }\n\n    function getAllOnSale () public view virtual returns( TokenMeta[] memory ) {\n        TokenMeta[] memory tokensOnSale = new TokenMeta[](_tokenIds.current());\n        uint256 counter = 0;\n\n        for(uint i = 1; i < _tokenIds.current() + 1; i++) {\n            if(_tokenMeta[i].sale == true) {\n                tokensOnSale[counter] = _tokenMeta[i];\n                counter++;\n            }\n        }\n        return tokensOnSale;\n    }\n\n    function setTokenSale(uint256 _tokenId, bool _sale, uint256 _price) public {\n        require(_exists(_tokenId), \"ERC721Metadata: Sale set of nonexistent token\");\n        require(_price > 0);\n        require(ownerOf(_tokenId) == _msgSender());\n\n        _tokenMeta[_tokenId].sale = _sale;\n        setTokenPrice(_tokenId, _price);\n    }\n\n    function resellToken(uint256 _tokenId, uint256 _price) public payable nonReentrant{\n        require(_exists(_tokenId), \"ERC721Metadata: Sale set of nonexistent token\");\n        require(_price > 0);\n        require(ownerOf(_tokenId) == _msgSender());\n        require(msg.value == _price/100,\"Invalid commission value\");\n\n        AddressUpgradeable.sendValue(payable(commissionReceiverAddress),msg.value );\n\n        _tokenMeta[_tokenId].sale = true;\n        setTokenPrice(_tokenId, _price);\n    }\n\n    function resellTokenByPropel(uint256 _tokenId, uint256 _price) public nonReentrant{\n        require(_exists(_tokenId), \"ERC721Metadata: Sale set of nonexistent token\");\n        require(_price > 0);\n        require(ownerOf(_tokenId) == _msgSender());\n        require(\n            propelToken.transferFrom(msg.sender, payable(commissionReceiverAddress), _price/200 ),\n            \"Cannot Transfer Reselling Commission As Propel\"\n        );\n        _tokenMeta[_tokenId].sale = true;\n        setTokenPrice(_tokenId, _price);\n    }\n\n\n    function setTokenPrice(uint256 _tokenId, uint256 _price) public {\n        require(_exists(_tokenId), \"ERC721Metadata: Price set of nonexistent token\");\n        require(ownerOf(_tokenId) == _msgSender());\n        _tokenMeta[_tokenId].price = _price;\n    }\n\n    function tokenPrice(uint256 tokenId) public view virtual returns (uint256) {\n        require(_exists(tokenId), \"ERC721Metadata: Price query for nonexistent token\");\n        return _tokenMeta[tokenId].price;\n    }\n\n    function _setTokenMeta(uint256 _tokenId, TokenMeta memory _meta) private {\n        require(_exists(_tokenId));\n        require(ownerOf(_tokenId) == _msgSender());\n        _tokenMeta[_tokenId] = _meta;\n    }\n\n    function tokenMeta(uint256 _tokenId) public view returns (TokenMeta memory) {\n        require(_exists(_tokenId));\n        return _tokenMeta[_tokenId];\n    }\n\n    function purchaseToken(uint256 _tokenId) public payable nonReentrant {\n        require(_tokenMeta[_tokenId].priceInPropel == false);\n        require(msg.sender != address(0) && msg.sender != ownerOf(_tokenId));\n        require(msg.value == (_tokenMeta[_tokenId].price + (_tokenMeta[_tokenId].price/200)));\n        address tokenSeller = ownerOf(_tokenId);\n\n        AddressUpgradeable.sendValue(payable(tokenSeller),msg.value - (msg.value/200) );\n        AddressUpgradeable.sendValue(payable(commissionReceiverAddress),msg.value/200 );\n        _transfer(tokenSeller, msg.sender, _tokenId);\n        _tokenMeta[_tokenId].sale = false;\n    }\n\n    function purchaseTokenByPropel(uint256 _tokenId) public nonReentrant {\n        require(_tokenMeta[_tokenId].priceInPropel == true);\n        require(msg.sender != address(0) && msg.sender != ownerOf(_tokenId));\n        address tokenSeller = ownerOf(_tokenId);\n\n        require(\n            propelToken.transferFrom(msg.sender, payable(tokenSeller),\n            _tokenMeta[_tokenId].price - (_tokenMeta[_tokenId].price / 400) ),\n            \"Cannot Transfer Nft Price As Propel\"\n        );\n\n        require(\n            propelToken.transferFrom(msg.sender,\n            payable(commissionReceiverAddress), _tokenMeta[_tokenId].price / 400 ),\n            \"Cannot Transfer Buying Commission As Propel\"\n        );\n        _transfer(tokenSeller, msg.sender, _tokenId);\n        _tokenMeta[_tokenId].sale = false;\n    }\n\n    function mintCollectable(\n        address _owner,\n        string memory _tokenURI,\n        string memory _name,\n        uint256 _price,\n        bool _sale\n    )\n        public\n        payable\n        nonReentrant\n        returns (uint256)\n    {\n        require(_price > 0);\n        require(msg.value == _price/100,\"Invalid commission value\");\n\n        AddressUpgradeable.sendValue(payable(commissionReceiverAddress),msg.value );\n        _tokenIds.increment();\n\n        uint256 newItemId = _tokenIds.current();\n        _mint(_owner, newItemId);\n\n        TokenMeta memory meta = TokenMeta(newItemId, _price, _name, _tokenURI, _sale, false);\n        _setTokenMeta(newItemId, meta);\n\n        return newItemId;\n    }\n\n    function mintCollectableByPropel(\n        address _owner,\n        string memory _tokenURI,\n        string memory _name,\n        uint256 _price,\n        bool _sale\n    )\n    public\n    nonReentrant\n    returns (uint256)\n    {\n        require(_price > 0);\n        require(\n            propelToken.transferFrom(msg.sender, payable(commissionReceiverAddress), _price/200 ),\n            \"Cannot Transfer Minting Commission As Propel\"\n        );\n        _tokenIds.increment();\n\n        uint256 newItemId = _tokenIds.current();\n        _mint(_owner, newItemId);\n\n        TokenMeta memory meta = TokenMeta(newItemId, _price, _name, _tokenURI, _sale, true);\n        _setTokenMeta(newItemId, meta);\n\n        return newItemId;\n    }\n}",
  "sourcePath": "/home/ahmad/work/mike/nft-smart-contract/contracts/PAYRUESTORE.sol",
  "compiler": {
    "name": "solc",
    "version": "0.8.9+commit.e5eed63a.Emscripten.clang"
  },
  "schemaVersion": "3.4.3",
  "updatedAt": "2022-01-01T08:10:45.067Z",
  "networkType": "ethereum",
  "devdoc": {
    "kind": "dev",
    "methods": {
      "approve(address,uint256)": {
        "details": "See {IERC721-approve}."
      },
      "balanceOf(address)": {
        "details": "See {IERC721-balanceOf}."
      },
      "getApproved(uint256)": {
        "details": "See {IERC721-getApproved}."
      },
      "isApprovedForAll(address,address)": {
        "details": "See {IERC721-isApprovedForAll}."
      },
      "name()": {
        "details": "See {IERC721Metadata-name}."
      },
      "owner()": {
        "details": "Returns the address of the current owner."
      },
      "ownerOf(uint256)": {
        "details": "See {IERC721-ownerOf}."
      },
      "renounceOwnership()": {
        "details": "Leaves the contract without owner. It will not be possible to call `onlyOwner` functions anymore. Can only be called by the current owner. NOTE: Renouncing ownership will leave the contract without an owner, thereby removing any functionality that is only available to the owner."
      },
      "safeTransferFrom(address,address,uint256)": {
        "details": "See {IERC721-safeTransferFrom}."
      },
      "safeTransferFrom(address,address,uint256,bytes)": {
        "details": "See {IERC721-safeTransferFrom}."
      },
      "setApprovalForAll(address,bool)": {
        "details": "See {IERC721-setApprovalForAll}."
      },
      "supportsInterface(bytes4)": {
        "details": "See {IERC165-supportsInterface}."
      },
      "symbol()": {
        "details": "See {IERC721Metadata-symbol}."
      },
      "tokenURI(uint256)": {
        "details": "See {IERC721Metadata-tokenURI}."
      },
      "transferFrom(address,address,uint256)": {
        "details": "See {IERC721-transferFrom}."
      },
      "transferOwnership(address)": {
        "details": "Transfers ownership of the contract to a new account (`newOwner`). Can only be called by the current owner."
      }
    },
    "version": 1
  },
  "userdoc": {
    "kind": "user",
    "methods": {},
    "version": 1
  }
}